{
  "contractName": "StudentCredential",
  "abi": [
    {
      "inputs": [],
      "stateMutability": "nonpayable",
      "type": "constructor"
    },
    {
      "anonymous": false,
      "inputs": [
        {
          "indexed": true,
          "internalType": "bytes32",
          "name": "certificateId",
          "type": "bytes32"
        },
        {
          "indexed": false,
          "internalType": "string",
          "name": "studentName",
          "type": "string"
        },
        {
          "indexed": false,
          "internalType": "string",
          "name": "courseName",
          "type": "string"
        },
        {
          "indexed": false,
          "internalType": "uint256",
          "name": "issueDate",
          "type": "uint256"
        }
      ],
      "name": "CertificateIssued",
      "type": "event"
    },
    {
      "anonymous": false,
      "inputs": [
        {
          "indexed": true,
          "internalType": "address",
          "name": "institutionAddress",
          "type": "address"
        },
        {
          "indexed": false,
          "internalType": "string",
          "name": "name",
          "type": "string"
        }
      ],
      "name": "InstitutionAdded",
      "type": "event"
    },
    {
      "inputs": [
        {
          "internalType": "bytes32",
          "name": "",
          "type": "bytes32"
        }
      ],
      "name": "certificates",
      "outputs": [
        {
          "internalType": "string",
          "name": "studentName",
          "type": "string"
        },
        {
          "internalType": "string",
          "name": "courseName",
          "type": "string"
        },
        {
          "internalType": "uint256",
          "name": "issueDate",
          "type": "uint256"
        },
        {
          "internalType": "string",
          "name": "certificateHash",
          "type": "string"
        },
        {
          "internalType": "bool",
          "name": "isValid",
          "type": "bool"
        },
        {
          "internalType": "address",
          "name": "issuingInstitution",
          "type": "address"
        }
      ],
      "stateMutability": "view",
      "type": "function",
      "constant": true
    },
    {
      "inputs": [
        {
          "internalType": "address",
          "name": "",
          "type": "address"
        }
      ],
      "name": "institutions",
      "outputs": [
        {
          "internalType": "string",
          "name": "name",
          "type": "string"
        },
        {
          "internalType": "bool",
          "name": "isAuthorized",
          "type": "bool"
        },
        {
          "internalType": "address",
          "name": "institutionAddress",
          "type": "address"
        }
      ],
      "stateMutability": "view",
      "type": "function",
      "constant": true
    },
    {
      "inputs": [],
      "name": "owner",
      "outputs": [
        {
          "internalType": "address",
          "name": "",
          "type": "address"
        }
      ],
      "stateMutability": "view",
      "type": "function",
      "constant": true
    },
    {
      "inputs": [
        {
          "internalType": "address",
          "name": "_institutionAddress",
          "type": "address"
        },
        {
          "internalType": "string",
          "name": "_name",
          "type": "string"
        }
      ],
      "name": "addInstitution",
      "outputs": [],
      "stateMutability": "nonpayable",
      "type": "function"
    },
    {
      "inputs": [
        {
          "internalType": "string",
          "name": "_studentName",
          "type": "string"
        },
        {
          "internalType": "string",
          "name": "_courseName",
          "type": "string"
        },
        {
          "internalType": "string",
          "name": "_certificateHash",
          "type": "string"
        }
      ],
      "name": "issueCertificate",
      "outputs": [
        {
          "internalType": "bytes32",
          "name": "",
          "type": "bytes32"
        }
      ],
      "stateMutability": "nonpayable",
      "type": "function"
    },
    {
      "inputs": [
        {
          "internalType": "bytes32",
          "name": "_certificateId",
          "type": "bytes32"
        }
      ],
      "name": "verifyCertificate",
      "outputs": [
        {
          "internalType": "string",
          "name": "studentName",
          "type": "string"
        },
        {
          "internalType": "string",
          "name": "courseName",
          "type": "string"
        },
        {
          "internalType": "uint256",
          "name": "issueDate",
          "type": "uint256"
        },
        {
          "internalType": "string",
          "name": "certificateHash",
          "type": "string"
        },
        {
          "internalType": "bool",
          "name": "isValid",
          "type": "bool"
        },
        {
          "internalType": "address",
          "name": "issuingInstitution",
          "type": "address"
        }
      ],
      "stateMutability": "view",
      "type": "function",
      "constant": true
    },
    {
      "inputs": [
        {
          "internalType": "bytes32",
          "name": "_certificateId",
          "type": "bytes32"
        }
      ],
      "name": "revokeCertificate",
      "outputs": [],
      "stateMutability": "nonpayable",
      "type": "function"
    }
  ],
  "bytecode": "0x608060405234801561001057600080fd5b50600280546001600160a01b03191633179055610e42806100326000396000f3fe608060405234801561001057600080fd5b506004361061007d5760003560e01c80638da5cb5b1161005b5780638da5cb5b146100d8578063b2d9767f146100ed578063beec1caa1461010f578063c6cbc52a1461012f5761007d565b806317e1bfb714610082578063742f068814610097578063850c1768146100c5575b600080fd5b610095610090366004610a73565b610142565b005b6100aa6100a5366004610abf565b610239565b6040516100bc96959493929190610c6c565b60405180910390f35b6100aa6100d3366004610abf565b610413565b6100e0610656565b6040516100bc9190610bd3565b6101006100fb366004610a52565b610665565b6040516100bc93929190610c03565b61012261011d366004610ad7565b61071d565b6040516100bc9190610be7565b61009561013d366004610abf565b610890565b6002546001600160a01b031633146101755760405162461bcd60e51b815260040161016c90610d06565b60405180910390fd5b60408051606081018252828152600160208083018290526001600160a01b038616838501819052600090815291815292902081518051929391926101bc928492019061091c565b506020820151600191909101805460409384015160ff1990911692151592909217610100600160a81b0319166101006001600160a01b03938416021790559051908316907f53c8ba766789150b95d79fcf2e244a0f2638aaa6814f679f574a4bfe44ba8df49061022d908490610bf0565b60405180910390a25050565b60006020819052908152604090208054819061025490610dbb565b80601f016020809104026020016040519081016040528092919081815260200182805461028090610dbb565b80156102cd5780601f106102a2576101008083540402835291602001916102cd565b820191906000526020600020905b8154815290600101906020018083116102b057829003601f168201915b5050505050908060010180546102e290610dbb565b80601f016020809104026020016040519081016040528092919081815260200182805461030e90610dbb565b801561035b5780601f106103305761010080835404028352916020019161035b565b820191906000526020600020905b81548152906001019060200180831161033e57829003601f168201915b50505050509080600201549080600301805461037690610dbb565b80601f01602080910402602001604051908101604052809291908181526020018280546103a290610dbb565b80156103ef5780601f106103c4576101008083540402835291602001916103ef565b820191906000526020600020905b8154815290600101906020018083116103d257829003601f168201915b5050506004909301549192505060ff8116906001600160a01b036101009091041686565b6060806000606060008060008060008981526020019081526020016000206040518060c001604052908160008201805461044c90610dbb565b80601f016020809104026020016040519081016040528092919081815260200182805461047890610dbb565b80156104c55780601f1061049a576101008083540402835291602001916104c5565b820191906000526020600020905b8154815290600101906020018083116104a857829003601f168201915b505050505081526020016001820180546104de90610dbb565b80601f016020809104026020016040519081016040528092919081815260200182805461050a90610dbb565b80156105575780601f1061052c57610100808354040283529160200191610557565b820191906000526020600020905b81548152906001019060200180831161053a57829003601f168201915b505050505081526020016002820154815260200160038201805461057a90610dbb565b80601f01602080910402602001604051908101604052809291908181526020018280546105a690610dbb565b80156105f35780601f106105c8576101008083540402835291602001916105f3565b820191906000526020600020905b8154815290600101906020018083116105d657829003601f168201915b50505091835250506004919091015460ff811615156020808401919091526101009091046001600160a01b0316604092830152825190830151918301516060840151608085015160a090950151929d939c50909a50985091965090945092505050565b6002546001600160a01b031681565b60016020526000908152604090208054819061068090610dbb565b80601f01602080910402602001604051908101604052809291908181526020018280546106ac90610dbb565b80156106f95780601f106106ce576101008083540402835291602001916106f9565b820191906000526020600020905b8154815290600101906020018083116106dc57829003601f168201915b5050506001909301549192505060ff8116906001600160a01b036101009091041683565b3360009081526001602081905260408220015460ff1661074f5760405162461bcd60e51b815260040161016c90610ccf565b6000848442336040516020016107689493929190610b87565b60408051601f19818403018152828252805160209182012060c084018352888452838201889052428484015260608401879052600160808501523360a08501526000818152808352929092208351805193955090926107ca928492019061091c565b5060208281015180516107e3926001850192019061091c565b50604082015160028201556060820151805161080991600384019160209091019061091c565b5060808201516004909101805460a0909301516001600160a01b031661010002610100600160a81b031992151560ff19909416939093179190911691909117905560405181907f6aa5049566532374d8eb77423544658da943403816bc40386bcdbeacd3ba9ff29061088090889088904290610c36565b60405180910390a2949350505050565b336000908152600160208190526040909120015460ff166108c35760405162461bcd60e51b815260040161016c90610ccf565b60008181526020819052604090206004015461010090046001600160a01b031633146109015760405162461bcd60e51b815260040161016c90610d48565b6000908152602081905260409020600401805460ff19169055565b82805461092890610dbb565b90600052602060002090601f01602090048101928261094a5760008555610990565b82601f1061096357805160ff1916838001178555610990565b82800160010185558215610990579182015b82811115610990578251825591602001919060010190610975565b5061099c9291506109a0565b5090565b5b8082111561099c57600081556001016109a1565b80356001600160a01b03811681146109cc57600080fd5b919050565b600082601f8301126109e1578081fd5b813567ffffffffffffffff808211156109fc576109fc610df6565b604051601f8301601f191681016020018281118282101715610a2057610a20610df6565b604052828152848301602001861015610a37578384fd5b82602086016020830137918201602001929092529392505050565b600060208284031215610a63578081fd5b610a6c826109b5565b9392505050565b60008060408385031215610a85578081fd5b610a8e836109b5565b9150602083013567ffffffffffffffff811115610aa9578182fd5b610ab5858286016109d1565b9150509250929050565b600060208284031215610ad0578081fd5b5035919050565b600080600060608486031215610aeb578081fd5b833567ffffffffffffffff80821115610b02578283fd5b610b0e878388016109d1565b94506020860135915080821115610b23578283fd5b610b2f878388016109d1565b93506040860135915080821115610b44578283fd5b50610b51868287016109d1565b9150509250925092565b60008151808452610b73816020860160208601610d8b565b601f01601f19169290920160200192915050565b60008551610b99818460208a01610d8b565b855190830190610bad818360208a01610d8b565b01938452505060601b6bffffffffffffffffffffffff1916602082015260340192915050565b6001600160a01b0391909116815260200190565b90815260200190565b600060208252610a6c6020830184610b5b565b600060608252610c166060830186610b5b565b9315156020830152506001600160a01b0391909116604090910152919050565b600060608252610c496060830186610b5b565b8281036020840152610c5b8186610b5b565b915050826040830152949350505050565b600060c08252610c7f60c0830189610b5b565b8281036020840152610c918189610b5b565b90508660408401528281036060840152610cab8187610b5b565b941515608084015250506001600160a01b039190911660a090910152949350505050565b6020808252601a908201527f4e6f7420617574686f72697a656420696e737469747574696f6e000000000000604082015260600190565b60208082526022908201527f4f6e6c79206f776e65722063616e20706572666f726d2074686973206163746960408201526137b760f11b606082015260800190565b60208082526023908201527f4f6e6c792069737375696e6720696e737469747574696f6e2063616e207265766040820152626f6b6560e81b606082015260800190565b60005b83811015610da6578181015183820152602001610d8e565b83811115610db5576000848401525b50505050565b600281046001821680610dcf57607f821691505b60208210811415610df057634e487b7160e01b600052602260045260246000fd5b50919050565b634e487b7160e01b600052604160045260246000fdfea26469706673582212202aa2623764e2e6945fbf51565273772dab4fed51a44cecf9a56fa4ac7b98cdfb64736f6c63430008000033",
  "immutableReferences": {},
  "source": "// SPDX-License-Identifier: MIT\npragma solidity ^0.8.0;\n\ncontract StudentCredential {\n    // Structs\n    struct Certificate {\n        string studentName;\n        string courseName;\n        uint256 issueDate;\n        string certificateHash;\n        bool isValid;\n        address issuingInstitution;\n    }\n\n    struct Institution {\n        string name;\n        bool isAuthorized;\n        address institutionAddress;\n    }\n\n    // State Variables\n    mapping(bytes32 => Certificate) public certificates;\n    mapping(address => Institution) public institutions;\n    address public owner;\n    \n    // Events\n    event CertificateIssued(\n        bytes32 indexed certificateId,\n        string studentName,\n        string courseName,\n        uint256 issueDate\n    );\n    \n    event InstitutionAdded(\n        address indexed institutionAddress,\n        string name\n    );\n\n    // Constructor\n    constructor() {\n        owner = msg.sender;\n    }\n\n    // Modifiers\n    modifier onlyOwner() {\n        require(msg.sender == owner, \"Only owner can perform this action\");\n        _;\n    }\n\n    modifier onlyAuthorizedInstitution() {\n        require(institutions[msg.sender].isAuthorized, \"Not authorized institution\");\n        _;\n    }\n\n    // Functions\n    function addInstitution(address _institutionAddress, string memory _name) \n        public \n        onlyOwner \n    {\n        institutions[_institutionAddress] = Institution({\n            name: _name,\n            isAuthorized: true,\n            institutionAddress: _institutionAddress\n        });\n        \n        emit InstitutionAdded(_institutionAddress, _name);\n    }\n\n    function issueCertificate(\n        string memory _studentName,\n        string memory _courseName,\n        string memory _certificateHash\n    ) \n        public \n        onlyAuthorizedInstitution \n        returns (bytes32)\n    {\n        bytes32 certificateId = keccak256(\n            abi.encodePacked(_studentName, _courseName, block.timestamp, msg.sender)\n        );\n\n        certificates[certificateId] = Certificate({\n            studentName: _studentName,\n            courseName: _courseName,\n            issueDate: block.timestamp,\n            certificateHash: _certificateHash,\n            isValid: true,\n            issuingInstitution: msg.sender\n        });\n\n        emit CertificateIssued(\n            certificateId,\n            _studentName,\n            _courseName,\n            block.timestamp\n        );\n\n        return certificateId;\n    }\n\n    function verifyCertificate(bytes32 _certificateId) \n        public \n        view \n        returns (\n            string memory studentName,\n            string memory courseName,\n            uint256 issueDate,\n            string memory certificateHash,\n            bool isValid,\n            address issuingInstitution\n        ) \n    {\n        Certificate memory cert = certificates[_certificateId];\n        return (\n            cert.studentName,\n            cert.courseName,\n            cert.issueDate,\n            cert.certificateHash,\n            cert.isValid,\n            cert.issuingInstitution\n        );\n    }\n\n    function revokeCertificate(bytes32 _certificateId) \n        public \n        onlyAuthorizedInstitution \n    {\n        require(\n            certificates[_certificateId].issuingInstitution == msg.sender,\n            \"Only issuing institution can revoke\"\n        );\n        certificates[_certificateId].isValid = false;\n    }\n}",
  "sourcePath": "/Users/admin/CertificationDapp/student-credentials/contracts/StudentCredential.sol",
  "compiler": {
    "name": "solc",
    "version": "0.8.0+commit.c7dfd78e.Emscripten.clang"
  },
  "schemaVersion": "3.4.16",
  "updatedAt": "2025-04-15T18:13:15.799Z",
  "networkType": "ethereum",
  "devdoc": {
    "kind": "dev",
    "methods": {},
    "version": 1
  },
  "userdoc": {
    "kind": "user",
    "methods": {},
    "version": 1
  }
}